S01400004C43442D446573656E686F732E73726563D7
S214400000A0380020B90F4000B50F4000B50F4000A3
S214400010B50F4000B50F4000B50F4000000000008F
S214400020000000000000000000000000B50F400087
S214400030B50F400000000000B50F4000B50F40006F
S214400040B50F4000B50F4000B50F4000B50F40005B
S214400050B50F4000B50F4000B50F4000B50F40004B
S214400060B50F4000B50F400000000000390E4000BC
S2144000704D0E4000610E4000B50F4000B50F4000E9
S2144000800000000000000000B50F4000B50F400023
S214400090B50F4000B50F4000B50F400011124000AC
S2144000A0B50F4000B50F4000B50F4000B50F4000FB
S2144000B0B50F4000B50F4000B50F4000B50F4000EB
S2144000C0B50F4000B50F4000B50F400010B5054CC9
S2144000D0237833B9044B13B10448AFF300800123AF
S2144000E0237010BD3804002000000000FC8B410047
S2144000F0084B10B51BB108480849AFF300800848C4
S214400100036803B910BD074B002BFBD0BDE8104079
S214400110184700BF00000000FC8B41003C04002054
S214400120FC8B41000000000001230360704700BFC5
S21440013041B1436843F480734360436843F010031F
S214400140436007E0436843F480734360436823F0AA
S2144001501003436000207047006B70470162704791
S2144001604368012906D823F4981343EA01414160C5
S2144001700020704701207047012904D801238B4096
S2144001800361002070470120704700BFC0F89410FC
S2144001900020704700EB8111086A704710B50E4882
S2144001A00E4B984700203E210D4B98470D4CA047DC
S2144001B00028FCD00C4B98470C4A0D4B9A620D4CCD
S2144001C0A0470028FCD010200B4B98470B4B984775
S2144001D00148024B984710BD000E27077D1140008E
S2144001E0DD0E4000310F4000410F4000013F13201C
S2144001F000040E40510F4000750E4000691040004C
S21440020038B54FF40042244B5A600B20234CA0478D
S2144002100C20A0470D20A04713204FF06051204CE3
S214400220A04714204FF06051A04723201D49A04707
S2144002304C201D49A0471D484FF4C0614FF0006256
S2144002401B4B98471B4D40202946A0474120294636
S214400250A04742202946A04743202946A04744209D
S2144002602946A04745202946A04746202946A0477C
S21440027047202946A0474B202946A04748202946E4
S214400280A0474F202946A04753202946A0474D2047
S2144002904FF04051A04738BD50140E40610F40000B
S2144002A0D10B40007900002859000028000E0E406F
S2144002B0F50C40000100000870B483B0C0F1110096
S2144002C0102828BF1020002808BF01200021104E0B
S2144002D04FF40055182475630194019B5A1E0192F1
S2144002E0002BFAD135630194019B5A1E0192002BD4
S2144002F0FAD101318142EED34FF400330193019B92
S2144003005A1E0192002BFAD103B070BC704700BF52
S21440031000120E4082B04FF40052064B5A634FF420
S21440032000330193019B5A1E0192002BFAD102B072
S214400330704700BF00120E400A4B1B78012B06D1B7
S2144003404FF0C24300221A7022221A707047022BC6
S21440035007D14FF0C2432C221A7000221A703C225A
S2144003601A70704714080020C0F30742034B1A70F7
S214400370C0F307221A70C0B21870704702000061BE
S2144003802DE9F8430746884631F0070918D0044659
S2144003900026124D57F82600A8476068A847A06870
S2144003A0A847E068A8472069A8476069A847A069A9
S2144003B0A847E069A847083620344E45EAD300E00F
S2144003C00026B04508D907EB8604044D54F8040BC4
S2144003D0A8470136B045F9D8BDE8F8836903400020
S2144003E04FF0C24300221A7018700A0A02331A707D
S2144003F0C9B21970704700BF10B44FF0C243002412
S2144004001C7018704AB14B1E501E51FA80F10448B9
S21440041013F8012F02708B42FAD15DF8044B7047F7
S2144004200200006182B000230193019B984211D9DB
S2144004300021094A0191019B934205D8019B013353
S2144004400193019B9342F9D9019B01330193019B90
S2144004508342EFD302B070479F86010030B4154CFC
S21440046024680568A54224BF04F1FF350560156879
S214400470AC429CBF04F1FF3414600F4C24680D68F6
S214400480A54224BF04F1FF350D601D68AC429CBFF9
S21440049004F1FF341C6004681568AC4284BF0560F4
S2144004A014600A681868824284BF08601A6030BCCC
S2144004B0704700BF000000200400002082B04FF0CC
S2144004C0C24300221A70D3221A7002331A788DF86B
S2144004D000201A788DF801201A788DF802201B78B3
S2144004E0DBB28DF80330D2B203EB02239BB249F263
S2144004F04132934204D102220E4B1A70002017E07C
S2144005004FF0C24300221A701A7002331A788DF8E0
S21440051000201B78D2B203EB02239BB249F225326D
S214400520934204D10122034B1A70002000E00120C0
S21440053002B070471408002008B5094B1B78012B01
S21440054005D1072040F23311064B984708BD022BD1
S21440055004D1292000210A46034B984708BD00BF16
S21440056014080020E1034000F9034000044A131F2A
S21440057002F56F7243F8040F9342FBD1704700BFF9
S214400580540400202DE9F04182B00C4617461E4622
S214400590224B1B78012B14D185B250202946DFF818
S2144005A08480C047791E2944512089B2C047A4B2EE
S2144005B052202146C047711E2144532089B2C0476D
S2144005C028E0022B26D1030A8DF80430C3B28DF8FA
S2144005D00530013A1044000A8DF8060017461F44BD
S2144005E08DF807702A2001A904220D4DA847230A3A
S2144005F08DF80430E3B28DF80530721E1444240A98
S2144006008DF8064016461E448DF807602B2001A93B
S2144006100422A84702B0BDE8F08100BF14080020BD
S214400620F9034000E103400038B5064B1B78012B28
S21440063007D10C4601462020034DA84721202146DD
S214400640A84738BD14080020E10340002DE9F043D8
S21440065083B00646AC4B9847002840F04F81F022C6
S214400660AA4B1A604FF4A072A94B1A60A94B1B788C
S214400670012B40F0B18007203321A74CA047102023
S2144006800021A04700200121A04701204FF480719F
S214400690A04702204FF4E061A04704200021A04775
S2144006A0082040F20721A04709200021A0470A2041
S2144006B00021A0470C200021A0470D200021A04784
S2144006C00F200021A04710200021A0471120002124
S2144006D0A04712200021A04713200021A047C82091
S2144006E08E4DA847102041F29021A047112040F29D
S2144006F02721A0473220A84712201B21A04732209E
S214400700A84713204FF48851A04729201921A04715
S2144007102B200D21A0473220A84730200021A0479B
S21440072031204FF40171A04732204FF40071A047AA
S21440073035200721A047362041F20441A047372004
S21440074040F20571A047382040F20531A0473920D5
S21440075040F20771A0473C2040F20171A0473D207F
S2144007600E21A04703204DF21001A04760204FF411
S2144007702741A04761200121A0476A200021A047C9
S21440078080200021A04781200021A0478220002110
S214400790A04783200021A04784200021A047852031
S2144007A00021A04790201021A04792204FF4C0611E
S2144007B0A04795204FF48871A04700200146326834
S2144007C07368574CA047B068564B98470020014680
S2144007D0554B9847002094E0022B40F091803923F7
S2144007E08DF800302C238DF8013000248DF802401F
S2144007F034238DF8033002278DF80470CB206946E9
S21440080005224A4DA8478DF80040AA238DF80130AE
S214400810B0238DF80230CF2069460322A847302304
S2144008208DF80030F72069460122A84725238DF829
S2144008300030C02069460122A8474FF011098DF8C4
S2144008400090C12069460122A8475C238DF80030FD
S2144008504C238DF80130C52069463A46A847942374
S2144008608DF80030C72069460122A84785238DF8B9
S21440087000304FF001088DF8018078238DF8023063
S214400880E82069460322A8478DF800408DF80140CD
S214400890EA2069463A46A84748238DF80030362075
S2144008A069464246A84706238DF800303A206946F6
S2144008B04246A8478DF8007082238DF801302723E2
S2144008C08DF802308DF80340B62069460422A847CA
S2144008D02046214632687368114FB847B068114BBE
S2144008E09847484669462246A8470A200B4B9847F1
S2144008F0292069462246A847204602E0012000E01B
S214400900012003B0BDE8F083BD0440000000002095
S2144009100400002014080020E103400025044000A5
S214400920850540006D05400029064000F90340005B
S2144009302DE9F04184B0039002910192009303A800
S21440094002A901AA6B46224CA047039D029C01992E
S2144009504A1C00994B1C28462146521B1B1B1D4C0B
S214400960A047BDF80C00BDF808101B4B98471B4B22
S2144009709847029A009B9A1A019B03F10108039B31
S214400980C3EB080802FB0888154CA4FB0834E409AE
S21440099007D0144FF026144D38463146A847013C40
S2144009A0FAD10F49A1FB0831C909C1EB01110D4825
S2144009B0A8EB01110C4B9847002001460B4B1A68D8
S2144009C00B4B1B68034CA04704B0BDE8F08100BF4A
S2144009D05D0440008505400029064000390340007C
S2144009E08988888854040020810340000000002045
S2144009F00400002030B585B0039002910244019275
S214400A000B44009303A802A901AA6B46224CA047B8
S214400A10039D029C01994A1C00994B1C284621467E
S214400A20521B1B1B1D4CA0471D4B1B78012B1AD17C
S214400A30BDF80C00BDF808101A4B98471A4B98475B
S214400A400299009B5B1A0399019A511A089801FB78
S214400A5003F1164B984700200146154B1A68154B74
S214400A601B68A04716E0022B14D10F4B98470299FB
S214400A70009B5B1A0399019A511A089801FB03F1EF
S214400A800A4B984700200146094B1A68094B1B68D9
S214400A90024CA04705B030BD5D04400085054000CF
S214400AA01408002029064000390340008103400016
S214400AB0000000200400002009014250704700BF9B
S214400AC000EB01114A60704700EB01118A607047E5
S214400AD000EB0111CA6070474264B1F1C05F2FD08D
S214400AE007D8B1F1006F14D0B1F1805F1ED039B98C
S214400AF07047B1F1205F37D004D8B1F1005F29D0FC
S214400B0042607047B1F1405F2ED0B1F1605F2BD0AC
S214400B10F6E710B4016F046FD343214019400167D4
S214400B20416F446F21400B4043671AE0036F134305
S214400B300367436F416F0B4023EA02034367DFE7D7
S214400B40036F016F0B4023EA02030367436F1343AF
S214400B504367D5E7036F13430367436F1343436706
S214400B60CEE742605DF8044B704700BF416412F028
S214400B70010F14BF4166016612F00A0F14BF0162EE
S214400B80416212F0020F02D0C0F8801004E012F06A
S214400B90080F18BFC0F8841041610160704700BF5D
S214400BA010B44164019C0CB1416600E001660BB193
S214400BB0016500E041650AB1016300E041630161FF
S214400BC001605DF8044B7047C06C7047806C70479E
S214400BD070B582B00D46430903F5001303F2077360
S214400BE05C0201F0F043B3F1005F47D009D8B3F19F
S214400BF0805F21D0B3F1C05F2FD0B3F1006F6FD1CB
S214400C0009E0B3F1405F55D0B3F1605F52D0B3F125
S214400C10205F44D064E000F01F0001268640204656
S214400C204FF000613246304B984715F0010F14BF25
S214400C3066662666012054E000F01F0001268640C6
S214400C4020464FF080513246274B984715F0010F0B
S214400C5014BF66662666012043E000F01F000126AA
S214400C60864020464FF0C05132461F4B984715F0FD
S214400C70010F14BF66662666012032E000F01F00B2
S214400C800126864020464FF000513246164B984784
S214400C9015F0010F14BF66662666012021E000F0BD
S214400CA01F030126204606FA03F12A460F4B9847B3
S214400CB0304616E000F01F03012605F0605205EAB4
S214400CC006010091204606FA03F1B2F1605F14BFB8
S214400CD000220122C5F38003054CA047304600E0C1
S214400CE0002002B070BD00BFD90A40006D0B400026
S214400CF0A10B400070B582B006460D46144602F081
S214400D00F043B3F1005F38D009D8B3F1805F1CD010
S214400D10B3F1C05F25D0B3F1006F50D109E0B3F115
S214400D20405F3AD0B3F1605F37D0B3F1205F30D048
S214400D3045E04FF000612A46224B984714F0010FD9
S214400D4014BF7566356601203AE04FF080512A465A
S214400D501C4B984714F0010F14BF7566356601208A
S214400D602EE04FF0C0512A46164B984714F0010F1C
S214400D7014BF75663566012022E04FF000512A46C2
S214400D80104B984714F0010F14BF75663566012066
S214400D9016E00D4B9847012012E004F0605204F034
S214400DA00103009330462946B2F1605F14BF00222B
S214400DB00122C4F38003054CA047012000E0002038
S214400DC002B070BDD90A40006D0B4000A10B400038
S214400DD02DE9F84381468846124B984705464846D3
S214400DE0114B9847054013D0104C04F16006236819
S214400DF0434508D16168294205D0E3684046984794
S214400E00636825EA0305B44202D01034002DEED1C3
S214400E10074B1B6823B1074B1B680BB148469847E6
S214400E20BDE8F883C90B4000CD0B40001C080020ED
S214400E308C0800201808002008B502480B21024BF9
S214400E40984708BD000E0E40D10D400008B5024838
S214400E500C21024B984708BD00100E40D10D4000B3
S214400E6008B502480D21024B984708BD00120E40B7
S214400E70D10D4000184A136B23F0700318431063DB
S214400E80936E13F0080F03D009E0013B03D11EE038
S214400E904FF4006310498A6E12F0080FF5D00E4AE0
S214400EA0136B23F0030343F002031363906E10F0BA
S214400EB0080004D000207047013B03D109E04FF4FE
S214400EC0006305498A6E12F0080FF5D0704701207E
S214400ED070470120704700BF00040E4038B11149EA
S214400EE00B6A114A1A40114B13430B6270470D4A66
S214400EF0136A23F45C1323F0030343F45C1343F0B8
S214400F000103090289B20B431362936E13F0010F7B
S214400F10FBD0044A136A43F09B7343F48033136256
S214400F20704700BF00040E40FCFFC8FE02003701B9
S214400F30024B986E00F48030704700BF00040E40AD
S214400F404FF00052014B9A62704700BF00040E40BB
S214400F50024B986E00F00200704700BF00040E403F
S214400F6022281ED81F280CD8114B9A69012383408B
S214400F701A40934217D0012383400D4A1361002044
S214400F8070470B4BD3F808212038012383401A4082
S214400F9093420AD001238340054AC2F8003100201C
S214400FA0704701207047002070470020704700BF00
S214400FB000040E40FEE700BF08B5204B204A9A4288
S214400FC013D9204B1D4A9A421FD21146043203338E
S214400FD09B1A23F003030433194A134452F8040BB4
S214400FE041F8040B9A42F9D10FE0144B144A9A4246
S214400FF00BD2144B114A9A1A134881182AB151F849
S214401000042943F8042D8142F9D100BF0F4B104A02
S2144010109A420BD2131D0F4AD21A22F003021A44E8
S214401020043B002143F8041B9342FBD10A4B0B4A76
S2144010309A600B4B98470B4B9847FEE70000002002
S214401040FC8B410038040020F88B4100A0080020AB
S21440105038040020A308002000ED00E00000400017
S214401060911340000D1340003D4B1B6B03F00303F0
S214401070032B5DD8DFE803F0020E2B2B394B5B6960
S21440108013F0800F14BF4FF400424FF4FA42364B31
S2144010901A604DE0324B1B6A13F0807F03D0334A10
S2144010A0314B1A6044E0324A2F4B1A602C4B1B6A75
S2144010B003F07003102B02D0202B04D038E02D4ACA
S2144010C0294B1A6034E0294A274B1A6030E0244BFB
S2144010D01B6A13F0807F03D0244A234B1A6012E029
S2144010E0234A214B1A601E4B1B6A03F07003102BD9
S2144010F002D0202B04D006E01E4A1B4B1A6002E0AA
S2144011001A4A194B1A60164B1B6B03F00303022B4B
S214401110134A07BF936A926AD36AD26A1248C3F3E5
S2144011200A41036801FB0333D2B2B3FBF2F3036018
S2144011300B4B1B6B03F07003702B07D10A4A1368E6
S2144011400D49A1FB03135B0813607047044B1A6BF1
S2144011500549C2F302120B68D3400B60704700BFCC
S21440116000040E4010140E4008000020001BB7007C
S21440117000093D0000127A00ABAAAAAA1A4B984270
S21440118007D84FF08063194A136002F50072136067
S2144011907047174B984206D8164B144A136002F510
S2144011A0007213607047144B984206D8134B0F4A90
S2144011B0136002F5007213607047114B984206D8D0
S2144011C0104B0A4A136002F50072136070470E4BCC
S2144011D0984294BF4FF004230C4B044A136002F528
S2144011E000721360704700BFFF2C3101000A0E40AA
S2144011F0FF59620200010004FF86930300020004C8
S214401200FFB3C40400030004FFE0F5050005000436
S21440121010B582B008480021084B98470190019BC2
S214401220074C2046074B9847009020464FF4806175
S214401230054B984702B010BD0000014095014000A4
S21440124000C00340590140005D0140002DE9F041D7
S2144012500A201E4B98471E4C204601214FF0023272
S2144012601C4B9847204601211B4A1C4B984720465A
S21440127001211B4A1B4B98472046012103221A4B4B
S21440128098471A4DF0272F604FF4A0766E600024E2
S214401290AC606FF07F48C5F80C80154B98472846E1
S2144012A0144B98470820144B98474046134B984792
S2144012B0204621463A463346114DA847114B98479B
S2144012C020462146104B9847BDE8F081610F40000C
S2144012D000000E40B90A400004040A0AC10A400051
S2144012E00A001600C90A4000D10A400090080020B3
S2144012F0150340004D064000B90240006D05400011
S21440130031094000390540002906400000B583B049
S214401310134B9847134B9847134B9847134B0093E0
S2144013200020DB21EF226323114CA0471E20114BE7
S2144013309847114C2046114B984720460021104BA9
S2144013409847204601210F4B9847204601210E4BD7
S214401350984720464FF485710C4B9847FEE700BFF0
S2144013609D014000010240004D124000D014400054
S214401370F5094000610F400000C0034029014000CD
S2144013803101400061014000790140008D0140007C
S21440139070B50F4E0F4D761BB61018BF002405D003
S2144013A0013455F8043B9847A642F9D10A4E0B4DF6
S2144013B0761B17F011FCB61018BF002406D0013477
S2144013C055F8043B9847A642F9D170BD70BD00BFA2
S2144013D0E48B4100E48B4100EC8B4100E48B410000
S2144013E0024B13B1024800F005B8704700000000F9
S2144013F001144000014600200246034600F016B89D
S21440140038B5084B084DED1AAC1018BFED1805D08E
S214401410013C55F8043D9847002CF9D1BDE83840CA
S21440142017F0E4BBF88B4100FC8B41002DE9F047F8
S214401430254C2568D5F84841064688469246994642
S214401440CCB360681F2818DC431C7EB104EB8005D3
S2144014500121C5F888A0D4F8887101FA00F2174334
S214401460022EC4F88871C5F808911ED00230636019
S21440147044F820800020BDE8F087144B03B34FF4B7
S214401480C870AFF300800446D0B1D5F84831002785
S21440149080E88800C5F8484138460123C4F888717A
S2144014A0C4F88C71002EE1D0D0E7D4F88C110A43F2
S2144014B0C4F88C21DAE705F5A674C5F84841C0E7BC
S2144014C04FF0FF30BDE8F087D48B410000000000AD
S2144014D0FFFFFF00FFFFFF00FFFFFF00FFFFFF00D3
S2144014E0FFFFFF00FFFFFF00FFFFFF00FFFFFF00C3
S2144014F0FFFFFF00FFFFFF00FFFFFF00FFFFFF00B3
S214401500FFFFFF00FFFFFF00FFFFFF00FFFFFF00A2
S21440336092571900A4723E00AB7D4E00B0855900BE
S214403370B78E6600BE997500B9936C00B58B610038
S214403380AF835500A67745009B652C008A4A070008
S21440339087450000874500008745000087450000B8
S2144033A087450000874500008745000087450000A8
S2144033B08745000087450000874500008745000098
S2144033C08745000087450000874500008745000088
S2144033D08745000087450000874500008745000078
S2144033E08745000087450000874500008745000068
S2144033F08745000087450000874500008745000058
S2144034008745000087450000874500008745000047
S214403410874500008745000087450000C5A5830016
S214403420FFFFFF00FFFFFF00FFFFFF00FFFFFF0063
S214403430FFFFFF00FFFFFF00FFFFFF00FFFFFF0053
S214403440FFFFFF00FFFFFF00FFFFFF00FFFFFF0043
S214403450FFFFFF00FFFFFF00FFFFFF00FFFFFF0033
S214403460FFFFFF00FFFFFF00FFFFFF00AC7F4F00A6
S21440347087450000874500008745000087450000D7
S21440348087450000874500008745000087450000C7
S21440349087450000874500008745000087450000B7
S2144034A087450000874500008745000087450000A7
S214403700874500008745000087450000975D2200FA
S214403710B68D6300D3BAA100E6D7CA00F8F5F1002B
S214403720FFFFFF00FFFFFF00FFFFFF00FFFFFF0060
S214403730FFFFFF00FFFFFF00FFFFFF00FFFFFF0050
S214403740FFFFFF00FFFFFF00FFFFFF00FEFDFC0046
S214403750EFE6DD00DCCAB600C4A38200A6734100D3
S2144037608A4A0800874500008745000087450000D4
S21440377087450000874500008745000087450000D4
S21440378087450000874500008745000087450000C4
S21440379087450000874500008745000087450000B4
S2144037A087450000874500008745000087450000A4
S2144037B08745000087450000874500008745000094
S2144037C08745000087450000874500008745000084
S2144037D0874500008745000087450000C5A5830053
S2144037E0FFFFFF00FFFFFF00FFFFFF00FFFFFF00A0
S2144037F0FFFFFF00FFFFFF00FFFFFF00FFFFFF0090
S214403800FFFFFF00FFFFFF00FFFFFF00FFFFFF007F
S214403810FFFFFF00FFFFFF00FFFFFF00FFFFFF006F
S214403820FFFFFF00FFFFFF00FFFFFF00AC7F4F00E2
S2144038308745000087450000874500008745000013
S2144038408745000087450000874500008745000003
S21440385087450000874500008745000087450000F3
S21440386087450000874500008745000087450000E3
S214403AB0874500008745000087450000874602008E
S214403AC0A6734100CFB69B00F0E8E000FFFFFF0082
S214403AD0FFFFFF00FFFFFF00FFFFFF00FFFFFF00AD
S214403AE0FFFFFF00FFFFFF00FFFFFF00FFFFFF009D
S214403AF0FFFFFF00FFFFFF00FFFFFF00FFFFFF008D
S214403B00FFFFFF00FFFFFF00FFFFFF00FFFFFF007C
S214403B10FFFFFF00FFFFFF00FFFFFF00FFFFFF006C
S214403B20FBF9F700DFCFBD00B9956D009053140048
S214403B308745000087450000874500008745000010
S214403B408745000087450000874500008745000000
S214403B5087450000874500008745000087450000F0
S214403B6087450000874500008745000087450000E0
S214403B7087450000874500008745000087450000D0
S214403B8087450000874500008745000087450000C0
S214403B90874500008745000087450000C5A583008F
S214403BA0FFFFFF00FFFFFF00FFFFFF00FFFFFF00DC
S214403BB0FFFFFF00FFFFFF00FFFFFF00FFFFFF00CC
S214403BC0FFFFFF00FFFFFF00FFFFFF00FFFFFF00BC
S214403BD0FFFFFF00FFFFFF00FFFFFF00FFFFFF00AC
S214403BE0FFFFFF00FFFFFF00FFFFFF00AC7F4F001F
S214403BF08745000087450000874500008745000050
S214403C00874500008745000087450000874500003F
S214403C10874500008745000087450000874500002F
S214403C20874500008745000087450000874500001F
S214403E7087450000965F2300C5A48400F1E9E10071
S214403E80FFFFFF00FFFFFF00FFFFFF00FFFFFF00F9
S214403E90FFFFFF00FFFFFF00FFFFFF00FFFFFF00E9
S214403EA0FFFFFF00FFFFFF00FFFFFF00FFFFFF00D9
S214403EB0FFFFFF00FFFFFF00FFFFFF00FFFFFF00C9
S214403EC0FFFFFF00FFFFFF00FFFFFF00FFFFFF00B9
S214403ED0FFFFFF00FFFFFF00FFFFFF00FFFFFF00A9
S214403EE0FFFFFF00FFFFFF00FFFFFF00FDFBFA00A4
S214403EF0D9C6B100AE80520088470300874500000F
S214403F00874500008745000087450000874500003C
S214403F10874500008745000087450000874500002C
S214403F20874500008745000087450000874500001C
S214403F30874500008745000087450000874500000C
S214403F4087450000874500008745000087450000FC
S214403F50874500008745000087450000C5A58300CB
S214403F60FFFFFF00FFFFFF00FFFFFF00FFFFFF0018
S214403F70FFFFFF00FFFFFF00FFFFFF00FFFFFF0008
S214403F80FFFFFF00FFFFFF00FFFFFF00FFFFFF00F8
S214403F90FFFFFF00FFFFFF00FFFFFF00FFFFFF00E8
S214403FA0FFFFFF00FFFFFF00FFFFFF00AC7F4F005B
S214403FB0874500008745000087450000874500008C
S214403FC0874500008745000087450000874500007C
S214403FD0874500008745000087450000874500006C
S214403FE0874500008745000087450000874500005C
S2144042208745000087450000874500009B652C00B9
S214404230D3BAA100FDFCFB00FFFFFF00FFFFFF001D
S214404240FFFFFF00FFFFFF00FFFFFF00FFFFFF0035
S214404250FFFFFF00FFFFFF00FFFFFF00FFFFFF0025
S214404260FFFFFF00FFFFFF00FFFFFF00FFFFFF0015
S214404270FFFFFF00FFFFFF00FFFFFF00FFFFFF0005
S214404280FFFFFF00FFFFFF00FFFFFF00FFFFFF00F5
S214404290FFFFFF00FFFFFF00FFFFFF00FFFFFF00E5
S2144042A0FFFFFF00FFFFFF00FFFFFF00FFFFFF00D5
S2144042B0FFFFFF00FFFFFF00EEE7DE00BA956E004F
S2144042C08A4A080087450000874500008745000069
S2144042D08745000087450000874500008745000069
S2144042E08745000087450000874500008745000059
S2144042F08745000087450000874500008745000049
S2144043008745000087450000874500008745000038
S214404310874500008745000087450000C5A5830007
S214404320FFFFFF00FFFFFF00FFFFFF00FFFFFF0054
S214404330FFFFFF00FFFFFF00FFFFFF00FFFFFF0044
S214404340FFFFFF00FFFFFF00FFFFFF00FFFFFF0034
S214404350FFFFFF00FFFFFF00FFFFFF00FFFFFF0024
S214404360FFFFFF00FFFFFF00FFFFFF00AC7F4F0097
S21440437087450000874500008745000087450000C8
S21440438087450000874500008745000087450000B8
S21440439087450000874500008745000087450000A8
S2144043A08745000087450000874500008745000098
S2144045E08745000099622800DAC5B000FFFEFE004D
S2144045F0FFFFFF00FFFFFF00FFFFFF00FFFFFF0082
S214404600FFFFFF00FFFFFF00FFFFFF00FFFFFF0071
S214404610FFFFFF00FFFFFF00FFFFFF00FFFFFF0061
S214404620FFFFFF00FFFFFF00FFFFFF00FFFFFF0051
S214404630FFFFFF00FFFFFF00FFFFFF00FFFFFF0041
S214404640FFFFFF00FFFFFF00FFFFFF00FFFFFF0031
S214404650FFFFFF00FFFFFF00FFFFFF00FFFFFF0021
S214404660FFFFFF00FFFFFF00FFFFFF00FFFFFF0011
S214404670FFFFFF00FFFFFF00FFFFFF00FFFFFF0001
S214404680F1E9E200B69067008746020087450000E1
S21440469087450000874500008745000087450000A5
S2144046A08745000087450000874500008745000095
S2144046B08745000087450000874500008745000085
S2144046C08745000087450000874500008745000075
S2144046D0874500008745000087450000C5A5830044
S2144046E0FFFFFF00FFFFFF00FFFFFF00FFFFFF0091
S2144046F0FFFFFF00FFFFFF00FFFFFF00FFFFFF0081
S214404700FFFFFF00FFFFFF00FFFFFF00FFFFFF0070
S214404710FFFFFF00FFFFFF00FFFFFF00FFFFFF0060
S214404720FFFFFF00FFFFFF00FFFFFF00AC7F4F00D3
S2144047308745000087450000874500008745000004
S21440474087450000874500008745000087450000F4
S21440475087450000874500008745000087450000E4
S21440476087450000874500008745000087450000D4
S2144049908745000087450000874500008B4B09008F
S2144049A0C2A27F00FCFAF800FFFFFF00FFFFFF00F7
S2144049B0FFFFFF00FFFFFF00FFFFFF00FFFFFF00BE
S2144049C0FFFFFF00FFFFFF00FFFFFF00FFFFFF00AE
S2144049D0FFFFFF00FFFFFF00FFFFFF00FFFFFF009E
S2144049E0FFFFFF00FFFFFF00FFFFFF00FFFFFF008E
S2144049F0FFFFFF00FFFFFF00FFFFFF00FFFFFF007E
S214404A00FFFFFF00FFFFFF00FFFFFF00FFFFFF006D
S214404A10FFFFFF00FFFFFF00FFFFFF00FFFFFF005D
S214404A20FFFFFF00FFFFFF00FFFFFF00FFFFFF004D
S214404A30FFFFFF00FFFFFF00FFFFFF00FFFFFF003D
S214404A40FFFFFF00FFFFFF00E7DBCE00A16D380051
S214404A5087450000874500008745000087450000E1
S214404A6087450000874500008745000087450000D1
S214404A7087450000874500008745000087450000C1
S214404A8087450000874500008745000087450000B1
S214404A90874500008745000087450000C5A5830080
S214404AA0FFFFFF00FFFFFF00FFFFFF00FFFFFF00CD
S214404AB0FFFFFF00FFFFFF00FFFFFF00FFFFFF00BD
S214404AC0FFFFFF00FFFFFF00FFFFFF00FFFFFF00AD
S214404AD0FFFFFF00FFFFFF00FFFFFF00FFFFFF009D
S214404AE0FFFFFF00FFFFFF00FFFFFF00AC7F4F0010
S214404AF08745000087450000874500008745000041
S214404B008745000087450000874500008745000030
S214404B108745000087450000874500008745000020
S214404B208745000087450000874500008745000010
S214404D508745000087450000A87A4800F0E8E00054
S214404D60FFFFFF00FFFFFF00FFFFFF00FFFFFF000A
S214404D70FFFFFF00FFFFFF00FFFFFF00FFFFFF00FA
S214404D80FFFFFF00FFFFFF00FFFFFF00FFFFFF00EA
S214404D90FFFFFF00FFFFFF00FFFFFF00FFFFFF00DA
S214404DA0FFFFFF00FFFFFF00FFFFFF00FFFFFF00CA
S214404DB0FFFFFF00FFFFFF00FFFFFF00FFFFFF00BA
S214404DC0FFFFFF00FFFFFF00FFFFFF00FFFFFF00AA
S214404DD0FFFFFF00FFFFFF00FFFFFF00FFFFFF009A
S214404DE0FFFFFF00FFFFFF00FFFFFF00FFFFFF008A
S214404DF0FFFFFF00FFFFFF00FFFFFF00FFFFFF007A
S214404E00FFFFFF00FFFFFF00FFFFFF00FEFEFD006D
S214404E10CEB296008C4D0B008745000087450000BB
S214404E20874500008745000087450000874500000D
S214404E3087450000874500008745000087450000FD
S214404E4087450000874500008745000087450000ED
S214404E50874500008745000087450000C5A58300BC
S214404E60FFFFFF00FFFFFF00FFFFFF00FFFFFF0009
S214404E70FFFFFF00FFFFFF00FFFFFF00FFFFFF00F9
S214404E80FFFFFF00FFFFFF00FFFFFF00FFFFFF00E9
S214404E90FFFFFF00FFFFFF00FFFFFF00FFFFFF00D9
S214404EA0FFFFFF00FFFFFF00FFFFFF00AC7F4F004C
S214404EB0874500008745000087450000874500007D
S214404EC0874500008745000087450000874500006D
S214404ED0874500008745000087450000874500005D
S214404EE0874500008745000087450000874500004D
S21440511088470400C2A27F00FEFEFD00FFFFFF009E
S214405120FFFFFF00FFFFFF00FFFFFF00FFFFFF0046
S214405130FFFFFF00FFFFFF00FFFFFF00FFFFFF0036
S214405140FFFFFF00FFFFFF00FFFFFF00FFFFFF0026
S214405150FFFFFF00FFFFFF00FFFFFF00FFFFFF0016
S214405160FFFFFF00FFFFFF00FFFFFF00FFFFFF0006
S214405170FFFFFF00FFFFFF00FFFFFF00FFFFFF00F6
S214405180FFFFFF00FFFFFF00FFFFFF00FFFFFF00E6
S214405190FFFFFF00FFFFFF00FFFFFF00FFFFFF00D6
S2144051A0FFFFFF00FFFFFF00FFFFFF00FFFFFF00C6
S2144051B0FFFFFF00FFFFFF00FFFFFF00FFFFFF00B6
S2144051C0FFFFFF00FFFFFF00FFFFFF00FFFFFF00A6
S2144051D0FFFFFF00ECE1D7009C672E0087450000EC
S2144051E0874500008745000087450000874500004A
S2144051F0874500008745000087450000874500003A
S2144052008745000087450000874500008745000029
S214405210874500008745000087450000C5A58300F8
S214405220FFFFFF00FFFFFF00FFFFFF00FFFFFF0045
S214405230FFFFFF00FFFFFF00FFFFFF00FFFFFF0035
S214405240FFFFFF00FFFFFF00FFFFFF00FFFFFF0025
S214405250FFFFFF00FFFFFF00FFFFFF00FFFFFF0015
S214405260FFFFFF00FFFFFF00FFFFFF00AC7F4F0088
S21440527087450000874500008745000087450000B9
S21440528087450000874500008745000087450000A9
S2144052908745000087450000874500008745000099
S2144052A08745000087450000874500008745000089
S2144054C0874500008745000087450000955A1E0026
S2144054D0E3D4C600FFFFFF00FFFFFF00FFFFFF0013
S2144054E0FFFFFF00FFFFFF00FFFFFF00FFFFFF0083
S2144054F0FFFFFF00FFFFFF00FFFFFF00FFFFFF0073
S214405500FFFFFF00FFFFFF00FFFFFF00FFFFFF0062
S214405510FFFFFF00FFFFFF00FFFFFF00FFFFFF0052
S214405520FFFFFF00FFFFFF00FFFFFF00FFFFFF0042
S214405530FFFFFF00FFFFFF00FFFFFF00FFFFFF0032
S214405540FFFFFF00FFFFFF00FFFFFF00FFFFFF0022
S214405550FFFFFF00FFFFFF00FFFFFF00FFFFFF0012
S214405560FFFFFF00FFFFFF00FFFFFF00FFFFFF0002
S214405570FFFFFF00FFFFFF00FFFFFF00FFFFFF00F2
S214405580FFFFFF00FFFFFF00FFFFFF00FFFFFF00E2
S214405590FFFFFF00FFFFFF00FBF8F600B68D63003D
S2144055A08745000087450000874500008745000086
S2144055B08745000087450000874500008745000076
S2144055C08745000087450000874500008745000066
S2144055D0874500008745000087450000C5A5830035
S2144055E0FFFFFF00FFFFFF00FFFFFF00FFFFFF0082
S2144055F0FFFFFF00FFFFFF00FFFFFF00FFFFFF0072
S214405600FFFFFF00FFFFFF00FFFFFF00FFFFFF0061
S214405610FFFFFF00FFFFFF00FFFFFF00FFFFFF0051
S214405620FFFFFF00FFFFFF00FFFFFF00AC7F4F00C4
S21440563087450000874500008745000087450000F5
S21440564087450000874500008745000087450000E5
S21440565087450000874500008745000087450000D5
S21440566087450000874500008745000087450000C5
S21440588087450000874500009B652C00F1EAE40050
S214405890FFFFFF00FFFFFF00FFFFFF00FFFFFF00CF
S2144058A0FFFFFF00FFFFFF00FFFFFF00FFFFFF00BF
S2144058B0FFFFFF00FFFFFF00FFFFFF00FFFFFF00AF
S2144058C0FFFFFF00FFFFFF00FFFFFF00FFFFFF009F
S2144058D0FFFFFF00FFFFFF00FFFFFF00FFFFFF008F
S2144058E0FFFFFF00FFFFFF00FFFFFF00FFFFFF007F
S2144058F0FFFFFF00FFFFFF00FFFFFF00FFFFFF006F
S214405900FFFFFF00FFFFFF00FFFFFF00FFFFFF005E
S214405910FFFFFF00FFFFFF00FFFFFF00FFFFFF004E
S214405920FFFFFF00FFFFFF00FFFFFF00FFFFFF003E
S214405930FFFFFF00FFFFFF00FFFFFF00FFFFFF002E
S214405940FFFFFF00FFFFFF00FFFFFF00FFFFFF001E
S214405950FFFFFF00FFFFFF00FFFFFF00FFFFFF000E
S214405960CBAE900087460200874500008745000082
S21440597087450000874500008745000087450000B2
S21440598087450000874500008745000087450000A2
S214405990874500008745000087450000C5A5830071
S2144059A0FFFFFF00FFFFFF00FFFFFF00FFFFFF00BE
S2144059B0FFFFFF00FFFFFF00FFFFFF00FFFFFF00AE
S2144059C0FFFFFF00FFFFFF00FFFFFF00FFFFFF009E
S2144059D0FFFFFF00FFFFFF00FFFFFF00FFFFFF008E
S2144059E0FFFFFF00FFFFFF00FFFFFF00AC7F4F0001
S2144059F08745000087450000874500008745000032
S214405A008745000087450000874500008745000021
S214405A108745000087450000874500008745000011
S214405A208745000087450000874500008745000001
S214405C4087450000A5734000F8F4F000FFFFFF0012
S214405C50FFFFFF00FFFFFF00FFFFFF00FFFFFF000B
S214405C60FFFFFF00FFFFFF00FFFFFF00FFFFFF00FB
S214405C70FFFFFF00FFFFFF00FFFFFF00FFFFFF00EB
S214405C80FFFFFF00FFFFFF00FFFFFF00FFFFFF00DB
S214405C90FFFFFF00FFFFFF00FFFFFF00FFFFFF00CB
S214405CA0FFFFFF00FFFFFF00FFFFFF00FFFFFF00BB
S214405CB0FFFFFF00FFFFFF00FFFFFF00FFFFFF00AB
S214405CC0FFFFFF00FFFFFF00FFFFFF00FFFFFF009B
S214405CD0FFFFFF00FFFFFF00FFFFFF00FFFFFF008B
S214405CE0FFFFFF00FFFFFF00FFFFFF00FFFFFF007B
S214405CF0FFFFFF00FFFFFF00FFFFFF00FFFFFF006B
S214405D00FFFFFF00FFFFFF00FFFFFF00FFFFFF005A
S214405D10FFFFFF00FFFFFF00FFFFFF00FFFFFF004A
S214405D20FFFFFF00D4BCA40089480500874500005B
S214405D3087450000874500008745000087450000EE
S214405D4087450000874500008745000087450000DE
S214405D50874500008745000087450000C5A58300AD
S214405D60FFFFFF00FFFFFF00FFFFFF00FFFFFF00FA
S214405D70FFFFFF00FFFFFF00FFFFFF00FFFFFF00EA
S214405D80FFFFFF00FFFFFF00FFFFFF00FFFFFF00DA
S214405D90FFFFFF00FFFFFF00FFFFFF00FFFFFF00CA
S214405DA0FFFFFF00FFFFFF00FFFFFF00DCCAB6005B
S214405DB0CDB09400CDB09400CDB09400CDB094005A
S214405DC0CDB09400CDB09400CDB09400CDB094004A
S214405DD0CDB09400CDB09400CDB09400CDB094003A
S214405DE0CDB09400CDB09400CDB09400CDB094002A
S214406000AA7B4C00DCCAB600DFCDBB00DFCDBB00B0
S214406010DFCDBB00DFCDBB00DFCDBB00DFCDBB009F
S214406020DFCDBB00DFCDBB00DFCDBB00DFCDBB008F
S214406030DFCDBB00DFCDBB00DFCDBB00DFCDBB007F
S214406040DFCDBB00DFCDBB00DFCDBB00DFCDBB006F
S214406050DFCDBB00DFCDBB00DFCDBB00DFCDBB005F
S214406060DFCDBB00DFCDBB00DFCDBB00DFCDBB004F
S214406070DFCDBB00DFCDBB00DFCDBB00DFCDBB003F
S214406080DFCDBB00DFCDBB00DFCDBB00DFCDBB002F
S214406090DFCDBB00DFCDBB00DFCDBB00DFCDBB001F
S2144060A0DFCDBB00DFCDBB00DFCDBB00DFCDBB000F
S2144060B0DFCDBB00DFCDBB00DFCDBB00DFCDBB00FF
S2144060C0DFCDBB00DFCDBB00DFCDBB00DFCDBB00EF
S2144060D0DFCDBB00DFCDBB00DFCDBB00DFCDBB00DF
S2144060E0DFCDBB00DFCDBB00CEB398008A4A0800A8
S2144060F0874500008745000087450000874500002B
S214406100874500008745000087450000874500001A
S214406110874500008745000087450000C5A58300E9
S214406120FFFFFF00FFFFFF00FFFFFF00FFFFFF0036
S214406130FFFFFF00FFFFFF00FFFFFF00FFFFFF0026
S214406140FFFFFF00FFFFFF00FFFFFF00FFFFFF0016
S214406150FFFFFF00FFFFFF00FFFFFF00FFFFFF0006
S2144063B0874500008745000087450000A6734100DA
S2144063C0E4D8C9008745000087450000874500009F
S2144063D08745000087450000874500008745000048
S2144063E08745000087450000874500008745000038
S2144063F08745000087450000874500008745000028
S2144064008745000087450000874500008745000017
S2144064108745000087450000874602009D672F009D
S214406420B68D6300C7A88900DAC5B000E3D4C600BD
S214406430E8DDD100EFE6DD00ECE2D900E7DACC009B
S214406440DECEBC00CFB69B00BE997500A97A4A0046
S2144064508E4F0F00874500008745000087450000A7
S21440646087450000874500008745000087450000B7
S21440647087450000874500008745000087450000A7
S2144064808745000087450000874500008745000097
S2144064908745000087450000874500008745000087
S2144064A08745000087450000AF835500D9C6B10038
S2144064B08847040087450000874500008745000060
S2144064C08745000087450000874500008745000057
S2144064D0874500008745000087450000C5A5830026
S2144064E0FFFFFF00FFFFFF00FFFFFF00FFFFFF0073
S2144064F0FFFFFF00FFFFFF00FFFFFF00FFFFFF0063
S214406500FFFFFF00FFFFFF00FFFFFF00FFFFFF0052
S214406510FFFFFF00FFFFFF00FFFFFF00FFFFFF0042
S21440677087450000874500009D672F00F7F3EF0030
S214406780E9DDD000874500008745000087450000CA
S2144067908745000087450000874500008745000084
S2144067A08745000087450000874500008745000074
S2144067B08745000087450000874500008745000064
S2144067C08745000087450000874500008A4A080044
S2144067D0AF835500D7C2AB00F5F0EB00FFFFFF00DC
S2144067E0FFFFFF00FFFFFF00FFFFFF00FFFFFF0070
S2144067F0FFFFFF00FFFFFF00FFFFFF00FFFFFF0060
S214406800FFFFFF00FFFFFF00FFFFFF00FFFFFF004F
S214406810FEFDFC00E6D8C900C2A27F00965F2300BA
S21440682087450000874500008745000087450000F3
S21440683087450000874500008745000087450000E3
S21440684087450000874500008745000087450000D3
S21440685087450000874500008745000087450000C3
S2144068608745000087450000AF835500FFFFFF00C7
S214406870D3BAA10087450100874500008745000040
S2144068808745000087450000874500008745000093
S214406890874500008745000087450000C5A5830062
S2144068A0FFFFFF00FFFFFF00FFFFFF00FFFFFF00AF
S2144068B0FFFFFF00FFFFFF00FFFFFF00FFFFFF009F
S2144068C0FFFFFF00FFFFFF00FFFFFF00FFFFFF008F
S2144068D0FFFFFF00FFFFFF00FFFFFF00FFFFFF007F
S214406B3087450000965C2000F4EFE900FFFFFF0069
S214406B40E9DDD00087450000874500008745000006
S214406B5087450000874500008745000087450000C0
S214406B6087450000874500008745000087450000B0
S214406B7087450000874500008745000087450000A0
S214406B8087450000975D2100CDB09400F7F3EF00F5
S214406B90FFFFFF00FFFFFF00FFFFFF00FFFFFF00BC
S214406BA0FFFFFF00FFFFFF00FFFFFF00FFFFFF00AC
S214406BB0FFFFFF00FFFFFF00FFFFFF00FFFFFF009C
S214406BC0FFFFFF00FFFFFF00FFFFFF00FFFFFF008C
S214406BD0FFFFFF00FFFFFF00FFFFFF00FFFEFE007E
S214406BE0E3D4C500AF8254008746020087450000C4
S214406BF08745000087450000874500008745000020
S214406C00874500008745000087450000874500000F
S214406C1087450000874500008745000087450000FF
S214406C208745000087450000AF835500FFFFFF0003
S214406C30FFFFFF00C2A27F00874500008745000097
S214406C4087450000874500008745000087450000CF
S214406C50874500008745000087450000C5A583009E
S214406C60FFFFFF00FFFFFF00FFFFFF00FFFFFF00EB
S214406C70FFFFFF00FFFFFF00FFFFFF00FFFFFF00DB
S214406C80FFFFFF00FFFFFF00FFFFFF00FFFFFF00CB
S214406C90FFFFFF00FFFFFF00FFFFFF00FFFFFF00BB
S214406EF089480500E3D4C600FFFFFF00FFFFFF0000
S214406F00E9DDD00087450000874500008745000042
S214406F1087450000874500008745000087450000FC
S214406F2087450000874500008745000087450000EC
S214406F30874500008745000087450000955A1E009B
S214406F40D3BAA100FDFCFB00FFFFFF00FFFFFF00E0
S214406F50FFFFFF00FFFFFF00FFFFFF00FFFFFF00F8
S214406F60FFFFFF00FFFFFF00FFFFFF00FFFFFF00E8
S214406F70FFFFFF00FFFFFF00FFFFFF00FFFFFF00D8
S214406F80FFFFFF00FFFFFF00FFFFFF00FFFFFF00C8
S214406F90FFFFFF00FFFFFF00FFFFFF00FFFFFF00B8
S214406FA0FFFFFF00FFFFFF00ECE1D700AF85580072
S214406FB0874500008745000087450000874500005C
S214406FC0874500008745000087450000874500004C
S214406FD0874500008745000087450000874500003C
S214406FE08745000087450000AF835500FFFFFF0040
S214406FF0FFFFFF00FEFEFD00A77847008745000024
S214407000874500008745000087450000874500000B
S214407010874500008745000087450000C5A58300DA
S214407020FFFFFF00FFFFFF00FFFFFF00FFFFFF0027
S214407030FFFFFF00FFFFFF00FFFFFF00FFFFFF0017
S214407040FFFFFF00FFFFFF00FFFFFF00FFFFFF0007
S214407050FFFFFF00FFFFFF00FFFFFF00FFFFFF00F7
S2144072B0CAAF9100FFFFFF00FFFFFF00FFFFFF0088
S2144072C0E9DDD0008745000087450000874500007F
S2144072D08745000087450000874500008745000039
S2144072E08745000087450000874500008745000029
S2144072F08745000089490600BF9B7700F9F7F400F0
S214407300FFFFFF00FFFFFF00FFFFFF00FFFFFF0044
S214407310FFFFFF00FFFFFF00FFFFFF00FFFFFF0034
S214407320FFFFFF00FFFFFF00FFFFFF00FFFFFF0024
S214407330FFFFFF00FFFFFF00FFFFFF00FFFFFF0014
S214407340FFFFFF00FFFFFF00FFFFFF00FFFFFF0004
S214407350FFFFFF00FFFFFF00FFFFFF00FFFFFF00F4
S214407360FFFFFF00FFFFFF00FFFFFF00FFFFFF00E4
S214407370DFD0BE009A632A0087450000874500009C
S2144073808745000087450000874500008745000088
S2144073908745000087450000874500008745000078
S2144073A08745000087450000AF835500FFFFFF007C
S2144073B0FFFFFF00FFFFFF00F5F0EA0093581B00B9
S2144073C08745000087450000874500008745000048
S2144073D0874500008745000087450000C5A5830017
S2144073E0FFFFFF00FFFFFF00FFFFFF00FFFFFF0064
S2144073F0FFFFFF00FFFFFF00FFFFFF00FFFFFF0054
S214407400FFFFFF00FFFFFF00FFFFFF00FFFFFF0043
S214407410FFFFFF00FFFFFF00FFFFFF00FFFFFF0033
S214407610FFFFFF00FFFFFF00F3ECE600F1E9E200AA
S214407620FFFFFF00FFFFFF00FFFFFF00FFFFFF0021
S214407630FFFFFF00FFFFFF00FFFFFF00FFFFFF0011
S214407640FFFFFF00FFFFFF00FFFFFF00FFFFFF0001
S21440765087450000874500008745000087450000B5
S214407660874500008745000087450000AC7F4F00F7
S214407670FFFEFE00FFFFFF00FFFFFF00FFFFFF00D3
S214407680E9DDD000874500008745000087450000BB
S2144076908745000087450000874500008745000075
S2144076A08745000087450000874500008745000065
S2144076B0955B1F00E5D5C700FFFFFF00FFFFFF00FB
S2144076C0FFFFFF00FFFFFF00FFFFFF00FFFFFF0081
S2144076D0FFFFFF00FFFFFF00FFFFFF00FFFFFF0071
S2144076E0FFFFFF00FFFFFF00FFFFFF00FFFFFF0061
S2144076F0FFFFFF00FFFFFF00FFFFFF00FFFFFF0051
S214407700FFFFFF00FFFFFF00FFFFFF00FFFFFF0040
S214407710FFFFFF00FFFFFF00FFFFFF00FFFFFF0030
S214407720FFFFFF00FFFFFF00FFFFFF00FFFFFF0020
S214407730FFFFFF00FCFAF800BA956E00874501008F
S21440774087450000874500008745000087450000C4
S21440775087450000874500008745000087450000B4
S2144077608745000087450000AF835500FFFFFF00B8
S214407770FFFFFF00FFFFFF00FFFFFF00E2D2C10058
S2144077808746020087450000874500008745000081
S214407790874500008745000087450000C5A5830053
S2144077A0FFFFFF00FFFFFF00FFFFFF00FFFFFF00A0
S2144077B0FFFFFF00FFFFFF00FFFFFF00FFFFFF0090
S2144077C0FFFFFF00FFFFFF00FFFFFF00FFFFFF0080
S2144077D0FFFFFF00FFFFFF00FFFFFF00FFFFFF0070
S2144079D0FDFBFA00CBAE90008D4F0E00B68D6400D6
S2144079E0FFFFFF00FFFFFF00FFFFFF00FFFFFF005E
S2144079F0FFFFFF00FFFFFF00FFFFFF00FFFFFF004E
S214407A00FFFFFF00FFFFFF00FFFFFF00FFFFFF003D
S214407A1087450000874500008745000087450000F1
S214407A2087450000874500008D4D0D00F1EAE400D3
S214407A30FFFFFF00FFFFFF00FFFFFF00FFFFFF000D
S214407A40E9DDD000874500008745000087450000F7
S214407A5087450000874500008745000087450000B1
S214407A60874500008745000087450000AD805100EF
S214407A70F8F5F100FFFFFF00FFFFFF00FFFFFF00EC
S214407A80FFFFFF00FFFFFF00FFFFFF00FFFFFF00BD
S214407A90FFFFFF00FFFFFF00FFFFFF00FFFFFF00AD
S214407AA0FFFFFF00FFFFFF00FFFFFF00FFFFFF009D
S214407AB0FFFFFF00FFFFFF00FFFFFF00FFFFFF008D
S214407AC0FFFFFF00FFFFFF00FFFFFF00FFFFFF007D
S214407AD0FFFFFF00FFFFFF00FFFFFF00FFFFFF006D
S214407AE0FFFFFF00FFFFFF00FFFFFF00FFFFFF005D
S214407AF0FFFFFF00FFFFFF00FFFFFF00D7C2AB0006
S214407B008C4D0B00874500008745000087450000E8
S214407B1087450000874500008745000087450000F0
S214407B208745000087450000AF835500FFFFFF00F4
S214407B30FFFFFF00FFFFFF00FFFFFF00FFFFFF000C
S214407B40B6906700874500008745000087450000DF
S214407B50874500008745000087450000C5A583008F
S214407B60FFFFFF00FFFFFF00FFFFFF00FFFFFF00DC
S214407B70FFFFFF00FFFFFF00FFFFFF00FFFFFF00CC
S214407B80FFFFFF00FFFFFF00FFFFFF00FFFFFF00BC
S214407B90FFFFFF00FFFFFF00FFFFFF00FFFFFF00AC
S214407D80FFFFFF00FFFFFF00FFFFFF00DAC7B30063
S214407D90985F250087450000874500008A4A08000E
S214407DA0F3EEE800FFFFFF00FFFFFF00FFFFFF00CE
S214407DB0FFFFFF00FFFFFF00FFFFFF00FFFFFF008A
S214407DC0FFFFFF00FFFFFF00FFFFFF00FFFFFF007A
S214407DD0874500008745000087450000874500002E
S214407DE08745000087450000CBAE9000FFFFFF00B0
S214407DF0FFFFFF00FFFFFF00FFFFFF00FFFFFF004A
S214407E00E9DDD00087450000874500008745000033
S214407E1087450000874500008745000087450000ED
S214407E208745000087450000B8916A00FEFEFD00C9
S214407E30FFFFFF00FFFFFF00FFFFFF00FFFFFF0009
S214407E40FFFFFF00FFFFFF00FFFFFF00FFFFFF00F9
S214407E50FFFFFF00FFFFFF00FFFFFF00FFFFFF00E9
S214407E60FFFFFF00FFFFFF00FFFFFF00FFFFFF00D9
S214407E70FFFFFF00FFFFFF00FFFFFF00FFFFFF00C9
S214407E80FFFFFF00FFFFFF00FFFFFF00FFFFFF00B9
S214407E90FFFFFF00FFFFFF00FFFFFF00FFFFFF00A9
S214407EA0FFFFFF00FFFFFF00FFFFFF00FFFFFF0099
S214407EB0FFFFFF00FFFFFF00FFFFFF00FFFFFF0089
S214407EC0E6D7CA0090541500874500008745000055
S214407ED0874500008745000087450000874500002D
S214407EE08745000087450000AF835500FFFFFF0031
S214407EF0FFFFFF00FFFFFF00FFFFFF00FFFFFF0049
S214407F00F7F3EE00915516008745000087450000C0
S214407F10874500008745000087450000C5A58300CB
S214407F20FFFFFF00FFFFFF00FFFFFF00FFFFFF0018
S214407F30FFFFFF00FFFFFF00FFFFFF00FFFFFF0008
S214407F40FFFFFF00FFFFFF00FFFFFF00FFFFFF00F8
S214407F50FFFFFF00FFFFFF00FFFFFF00FFFFFF00E8
S214408140FFFFFF00EEE4DA00AA7B4C008745000004
S21440815087450000874500008745000087450000AA
S214408160C1A07D00FFFFFF00FFFFFF00FFFFFF00F5
S214408170FFFFFF00FFFFFF00FFFFFF00FFFFFF00C6
S214408180FFFFFF00FFFFFF00FFFFFF00FFFFFF00B6
S214408190874500008745000087450000874500006A
S2144081A0874500009C652D00FDFCFB00FFFFFF009F
S2144081B0FFFFFF00FFFFFF00FFFFFF00FFFFFF0086
S2144081C0E9DDD00087450000874500008745000070
S2144081D0874500008745000087450000874500002A
S2144081E087450000C09F7B00FFFFFF00FFFFFF00AA
S2144081F0FFFFFF00FFFFFF00FFFFFF00FFFFFF0046
S214408200FFFFFF00FFFFFF00FFFFFF00FFFFFF0035
S214408210FFFFFF00FFFFFF00FFFFFF00FFFFFF0025
S214408220FFFFFF00FFFFFF00FFFFFF00FFFFFF0015
S214408230FFFFFF00FFFFFF00FFFFFF00FFFFFF0005
S214408240FFFFFF00FFFFFF00FFFFFF00FFFFFF00F5
S214408250FFFFFF00FFFFFF00FFFFFF00FFFFFF00E5
S214408260FFFFFF00FFFFFF00FFFFFF00FFFFFF00D5
S214408270FFFFFF00FFFFFF00FFFFFF00FFFFFF00C5
S214408280FFFFFF00ECE3D800925719008745000037
S2144082908745000087450000874500008745000069
S2144082A08745000087450000AF835500FFFFFF006D
S2144082B0FFFFFF00FFFFFF00FFFFFF00FFFFFF0085
S2144082C0FFFFFF00D1BAA0008745000087450000A9
S2144082D0874500008745000087450000C5A5830008
S2144082E0FFFFFF00FFFFFF00FFFFFF00FFFFFF0055
S2144082F0FFFFFF00FFFFFF00FFFFFF00FFFFFF0045
S214408300FFFFFF00FFFFFF00FFFFFF00FFFFFF0034
S214408310FFFFFF00FFFFFF00FFFFFF00FFFFFF0024
S2144084F0FFFFFF00FFFFFF00FFFFFF00F9F7F4005C
S214408500C2A27F008A4A07008745000087450000D0
S21440851087450000874500008745000087450000E6
S2144085208E521200F9F7F400FFFFFF00FFFFFF0036
S214408530FFFFFF00FFFFFF00FFFFFF00FFFFFF0002
S214408540FFFFFF00FFFFFF00FFFFFF00FFFFFF00F2
S21440855087450000874500008745000087450000A6
S21440856087450000DECBB900FFFFFF00FFFFFF009E
S214408570FFFFFF00FFFFFF00FFFFFF00FFFFFF00C2
S214408580E9DDD000874500008745000087450000AC
S2144085908745000087450000874500008745000066
S2144085A0B7926900FFFFFF00FFFFFF00FFFFFF00DD
S2144085B0FFFFFF00FFFFFF00FFFFFF00FFFFFF0082
S2144085C0FFFFFF00FFFFFF00FFFFFF00FFFFFF0072
S2144085D0FFFFFF00FFFFFF00FFFFFF00FFFFFF0062
S2144085E0FFFFFF00FFFFFF00FFFFFF00FFFFFF0052
S2144085F0FFFFFF00FFFFFF00FFFFFF00FFFFFF0042
S214408600FFFFFF00FFFFFF00FFFFFF00FFFFFF0031
S214408610FFFFFF00FFFFFF00FFFFFF00FFFFFF0021
S214408620FFFFFF00FFFFFF00FFFFFF00FFFFFF0011
S214408630FFFFFF00FFFFFF00FFFFFF00FFFFFF0001
S214408640FFFFFF00FFFFFF00E9DFD3008F5111005F
S21440865087450000874500008745000087450000A5
S2144086608745000087450000AF835500FFFFFF00A9
S214408670FFFFFF00FFFFFF00FFFFFF00FFFFFF00C1
S214408680FFFFFF00FFFEFE009F68320087450000A8
S214408690874500008745000087450000C5A5830044
S2144086A0FFFFFF00FFFFFF00FFFFFF00FFFFFF0091
S2144086B0FFFFFF00FFFFFF00FFFFFF00FFFFFF0081
S2144086C0FFFFFF00FFFFFF00FFFFFF00FFFFFF0071
S2144086D0FFFFFF00FFFFFF00FFFFFF00FFFFFF0061
S2144088B0FFFFFF00FFFFFF00FEFDFC00965F23006A
S2144088C08745000087450000874500008745000033
S2144088D08745000087450000975D2200BD987200DE
S2144088E0E2D2C100FEFDFC00FFFFFF00FFFFFF00DD
S2144088F0FFFFFF00FFFFFF00FFFFFF00FFFFFF003F
S214408900FFFFFF00FFFFFF00FFFFFF00FFFFFF002E
S21440891087450000874500008745000087450000E2
S2144089209F683200FFFEFE00FFFFFF00FFFFFF00D4
S214408930FFFFFF00FFFFFF00FFFFFF00FFFFFF00FE
S214408940E9DDD000874500008745000087450000E8
S214408950874500008745000087450000AD805100F0
S214408960FEFEFD00FFFFFF00FFFFFF00FFFFFF00D2
S214408970FFFFFF00FFFFFF00FFFFFF00FFFFFF00BE
S214408980FFFFFF00FFFFFF00FFFFFF00FFFFFF00AE
S214408990FFFFFF00FFFFFF00FFFFFF00FFFFFF009E
S2144089A0FFFFFF00FFFFFF00FFFFFF00FFFFFF008E
S2144089B0FFFFFF00FFFFFF00FFFFFF00FFFFFF007E
S2144089C0FFFFFF00FFFFFF00FFFFFF00FFFFFF006E
S2144089D0FFFFFF00FFFFFF00FFFFFF00FFFFFF005E
S2144089E0FFFFFF00FFFFFF00FFFFFF00FFFFFF004E
S2144089F0FFFFFF00FFFFFF00FFFFFF00FFFFFF003E
S214408A00FFFFFF00FFFFFF00FFFFFF00E1D1C000B8
S214408A1088470400874500008745000087450000DA
S214408A208745000087450000AF835500FFFFFF00E5
S214408A30FFFFFF00FFFFFF00FFFFFF00FFFFFF00FD
S214408A40FFFFFF00FFFFFF00D6BFA90087450000DD
S214408A50874500008745000087450000C5A5830080
S214408A60FFFFFF00FFFFFF00FFFFFF00FFFFFF00CD
S214408A70FFFFFF00FFFFFF00FFFFFF00FFFFFF00BD
S214408A80FFFFFF00FFFFFF00FFFFFF00FFFFFF00AD
S214408A90FFFFFF00FFFFFF00FFFFFF00FFFFFF009D
S214408C70FFFFFF00FFFFFF00FFFFFF00B8916A0005
S214408C808745000087450000874500009F68320002
S214408C90C4A38100E8DDD100FFFFFF00FFFFFF0017
S214408CA0FFFFFF00FFFFFF00FFFFFF00FFFFFF008B
S214408CB0FFFFFF00FFFFFF00FFFFFF00FFFFFF007B
S214408CC0FFFFFF00FFFFFF00FFFFFF00FFFFFF006B
S214408CD0874500008745000087450000874500001F
S214408CE0D9C6B100FFFFFF00FFFFFF00FFFFFF00F8
S214408CF0FFFFFF00FFFFFF00FFFFFF00FFFFFF003B
S214408D00E9DDD00087450000874500008745000024
S214408D108745000087450000965F2300F8F4F00082
S214408D20FFFFFF00FFFFFF00FFFFFF00FFFFFF000A
S214408D30FFFFFF00FFFFFF00FFFFFF00FFFFFF00FA
S214408D40FFFFFF00FFFFFF00FFFFFF00FFFFFF00EA
S214408D50FFFFFF00FFFFFF00FFFFFF00FFFFFF00DA
S214408D60FFFFFF00FFFFFF00FFFFFF00FFFFFF00CA
S214408D70FFFFFF00FFFFFF00FFFFFF00FFFFFF00BA
S214408D80FFFFFF00FFFFFF00FFFFFF00FFFFFF00AA
S214408D90FFFFFF00FFFFFF00FFFFFF00FFFFFF009A
S214408DA0FFFFFF00FFFFFF00FFFFFF00FFFFFF008A
S214408DB0FFFFFF00FFFFFF00FFFFFF00FFFFFF007A
S214408DC0FFFFFF00FFFFFF00FFFFFF00FFFFFF006A
S214408DD0C7A88900874500008745000087450000F2
S214408DE08745000087450000AF835500FFFFFF0022
S214408DF0FFFFFF00FFFFFF00FFFFFF00FFFFFF003A
S214408E00FFFFFF00FFFFFF00FEFEFD009B652C00FE
S214408E10874500008745000087450000C5A58300BC
S214408E20FFFFFF00FFFFFF00FFFFFF00FFFFFF0009
S214408E30FFFFFF00FFFFFF00FFFFFF00FFFFFF00F9
S214408E40FFFFFF00FFFFFF00FFFFFF00FFFFFF00E9
S214408E50FFFFFF00FFFFFF00FFFFFF00FFFFFF00D9
S214409030FFFFFF00FFFFFF00FFFFFF00EEE5DC0045
S214409040A6754200CAAF9100F0E8E000FFFFFF00BF
S214409050FFFFFF00FFFFFF00FFFFFF00FFFFFF00D7
S214409060FFFFFF00FFFFFF00FFFFFF00FFFFFF00C7
S214409070FFFFFF00FFFFFF00FFFFFF00FFFFFF00B7
S214409080FFFFFF00FFFFFF00FFFFFF00FFFFFF00A7
S2144090908745000087450000874500009B652C00FB
S2144090A0FFFEFE00FFFFFF00FFFFFF00FFFFFF0089
S2144090B0FFFFFF00FFFFFF00FFFFFF00FFFFFF0077
S2144090C0E9DDD00087450000874500008745000061
S2144090D08745000089480500E7DACD00FFFFFF001E
S2144090E0FFFFFF00FFFFFF00FFFFFF00FFFFFF0047
S2144090F0FFFFFF00FFFFFF00FFFFFF00FFFFFF0037
S214409100FFFFFF00FFFFFF00FFFFFF00FFFFFF0026
S214409110FFFFFF00FFFFFF00FFFFFF00FFFFFF0016
S214409120FFFFFF00FFFFFF00FFFFFF00FFFFFF0006
S214409130FFFFFF00FFFFFF00FFFFFF00FFFFFF00F6
S214409140FFFFFF00FFFFFF00FFFFFF00FFFFFF00E6
S214409150FFFFFF00FFFFFF00FFFFFF00FFFFFF00D6
S214409160FFFFFF00FFFFFF00FFFFFF00FFFFFF00C6
S214409170FFFFFF00FFFFFF00FFFFFF00FFFFFF00B6
S214409180FFFFFF00FFFFFF00FFFFFF00FFFFFF00A6
S214409190FFFEFE00A97A490087450000874500008B
S2144091A08745000087450000AF835500FFFFFF005E
S2144091B0FFFFFF00FFFFFF00FFFFFF00FFFFFF0076
S2144091C0FFFFFF00FFFFFF00FFFFFF00D1BAA00038
S2144091D0874500008745000087450000C5A58300F9
S2144091E0FFFFFF00FFFFFF00FFFFFF00FFFFFF0046
S2144091F0FFFFFF00FFFFFF00FFFFFF00FFFFFF0036
S214409200FFFFFF00FFFFFF00FFFFFF00FFFFFF0025
S214409210FFFFFF00FFFFFF00FFFFFF00FFFFFF0015
S214409450874500008745000087450000C9AC8F005F
S214409460FFFFFF00FFFFFF00FFFFFF00FFFFFF00C3
S214409470FFFFFF00FFFFFF00FFFFFF00FFFFFF00B3
S214409480E9DDD0008745000087450000874500009D
S21440949087450000BF9B7600FFFFFF00FFFFFF00F1
S2144094A0FFFFFF00FFFFFF00FFFFFF00FFFFFF0083
S2144094B0FFFFFF00FFFFFF00FFFFFF00FFFFFF0073
S2144094C0FFFFFF00FFFFFF00FFFFFF00FFFFFF0063
S2144094D0FFFFFF00FFFFFF00FFFFFF00FFFFFF0053
S2144094E0FFFFFF00FFFFFF00FFFFFF00FFFFFF0043
S2144094F0FFFFFF00FFFFFF00FFFFFF00FFFFFF0033
S214409500FFFFFF00FFFFFF00FFFFFF00FFFFFF0022
S214409510FFFFFF00FFFFFF00FFFFFF00FFFFFF0012
S214409520FFFFFF00FFFFFF00FFFFFF00FFFFFF0002
S214409530FFFFFF00FFFFFF00FFFFFF00FFFFFF00F2
S214409540FFFFFF00FFFFFF00FFFFFF00FFFFFF00E2
S214409550FFFFFF00F1E9E1008C4D0C00874500005D
S2144095608745000087450000AF835500FFFFFF009A
S214409570FFFFFF00FFFFFF00FFFFFF00FFFFFF00B2
S214409580FFFFFF00FFFFFF00FFFFFF00FBF8F600B6
S2144095908E4F0F008745000087450000C5A5830015
S2144095A0FFFFFF00FFFFFF00FFFFFF00FFFFFF0082
S2144095B0FFFFFF00FFFFFF00FFFFFF00FFFFFF0072
S2144095C0FFFFFF00FFFFFF00FFFFFF00FFFFFF0062
S2144095D0FFFFFF00FFFFFF00FFFFFF00FFFFFF0052
S2144095E0FFFFFF00FFFFFF00FFFFFF00FFFFFF0042
S2144095F0FFFFFF00F9F7F400EFE6DD00EFE6DD00E1
S214409600EFE6DD00EFE6DD00EFE6DD00EFE6DD004D
S214409610EFE6DD00EFE6DD00EFE6DD00EFE6DD003D
S214409620EFE6DD00EFE6DD00F7F2ED00FFFFFF00BE
S214409630FFFFFF00FFFFFF00FFFFFF00FFFFFF00F1
S214409640FFFFFF00FFFFFF00FFFFFF00FFFFFF00E1
S214409650FFFFFF00FFFFFF00EFE8DF00EFE6DD0063
S214409660EFE6DD00EFE6DD00EFE6DD00EFE6DD00ED
S214409670EFE6DD00EFE6DD00EFE6DD00EFE6DD00DD
S214409680EFE6DD00EFE6DD00EFE6DD00FBF9F70094
S214409690FFFFFF00FFFFFF00FFFFFF00FFFFFF0091
S2144096A0FFFFFF00FFFFFF00FFFFFF00FFFFFF0081
S2144096B0FFFFFF00FFFFFF00FFFFFF00F1E9E200B2
S2144096C0EFE6DD00EFE6DD00EFE6DD00EFE6DD008D
S2144096D0EFE6DD00EFE6DD00EFE6DD00EFE6DD007D
S2144096E0EFE6DD00EFE6DD00EFE6DD00F7F3EF0046
S2144096F0FFFFFF00FFFFFF00FFFFFF00FFFFFF0031
S214409700FFFFFF00FFFFFF00FFFFFF00FFFFFF0020
S214409710FFFFFF00FFFFFF00FFFFFF00F9F6F3002B
S214409720EFE6DD00EFE6DD00EFE6DD00EFE6DD002C
S214409730EFE6DD00EFE6DD00EFE6DD00F3ECE60009
S214409740FFFFFF00FFFFFF00FFFFFF00FFFFFF00E0
S214409750FFFFFF00FFFFFF00FFFFFF00FFFFFF00D0
S214409760FFFFFF00FAF8F500EFE6DD00EFE6DD006C
S214409770EFE6DD00EFE6DD00EFE6DD00EFE6DD00DC
S214409780EFE6DD00F2EBE300FFFFFF00FFFFFF0028
S214409790FFFFFF00FFFFFF00FFFFFF00FFFFFF0090
S2144097A0FFFFFF00FFFFFF00FFFFFF00FFFFFF0080
S2144097B0FFFFFF00FCFAF800EFE6DD00EFE6DD0015
S2144097C0EFE6DD00EFE6DD00EFE6DD00EFE6DD008C
S2144097D0EFE6DD00EFE6DD00EFE6DD00EFE6DD007C
S2144097E0EFE6DD00EFE6DD00FDFBFA00FFFFFF00E1
S2144097F0FFFFFF00FFFFFF00FFFFFF00FFFFFF0030
S214409800FFFFFF00FFFFFF00FFFFFF00FFFFFF001F
S214409810874500008745000088470400F3EDE700D1
S214409820FFFFFF00FFFFFF00FFFFFF00FFFFFF00FF
S214409830FFFFFF00FFFFFF00FFFFFF00FFFFFF00EF
S214409840E9DDD000874500008745000087450000D9
S214409850945A1D00F9F6F300FFFFFF00FFFFFF00DC
S214409860FFFFFF00FFFFFF00FFFFFF00FFFFFF00BF
S214409870FFFFFF00FFFFFF00FFFFFF00FFFFFF00AF
S214409880FFFFFF00FFFFFF00FFFFFF00FFFFFF009F
S214409890FFFFFF00FFFFFF00FFFFFF00FFFFFF008F
S2144098A0FFFFFF00FFFFFF00FFFFFF00FFFFFF007F
S2144098B0FFFFFF00FFFFFF00FFFFFF00FFFFFF006F
S2144098C0FFFFFF00FFFFFF00FFFFFF00FFFFFF005F
S2144098D0FFFFFF00FFFFFF00FFFFFF00FFFFFF004F
S2144098E0FFFFFF00FFFFFF00FFFFFF00FFFFFF003F
S2144098F0FFFFFF00FFFFFF00FFFFFF00FFFFFF002F
S214409900FFFFFF00FFFFFF00FFFFFF00FFFFFF001E
S214409910FFFFFF00FFFFFF00C7A888008745000045
S2144099208745000087450000AF835500FFFFFF00D6
S214409930FFFFFF00FFFFFF00FFFFFF00FFFFFF00EE
S214409940FFFFFF00FFFFFF00FFFFFF00FFFFFF00DE
S214409950B58B62008745000087450000C5A583009B
S214409960FFFFFF00FFFFFF00FFFFFF00FFFFFF00BE
S214409970FFFFFF00FFFFFF00FFFFFF00FFFFFF00AE
S214409980FFFFFF00FFFFFF00FFFFFF00FFFFFF009E
S214409990FFFFFF00FFFFFF00FFFFFF00FFFFFF008E
S2144099A0FFFFFF00FFFFFF00FFFFFF00FFFFFF007E
S2144099B0FFFFFF00D7C2AC00874500008745000088
S2144099C08745000087450000874500008745000022
S2144099D08745000087450000874500008745000012
S2144099E08745000087450000A97A4A00FFFFFF0030
S2144099F0FFFFFF00FFFFFF00FFFFFF00FFFFFF002E
S214409A00FFFFFF00FFFFFF00FFFFFF00FFFFFF001D
S214409A10FFFFFF00F1E9E1008745000087450000B1
S214409A2087450000874500008745000087450000C1
S214409A3087450000874500008745000087450000B1
S214409A40874500008745000087450000E3D3C300F4
S214409A50FFFFFF00FFFFFF00FFFFFF00FFFFFF00CD
S214409A60FFFFFF00FFFFFF00FFFFFF00FFFFFF00BD
S214409A70FFFFFF00FFFFFF00F8F5F10089490600F1
S214409A808745000087450000874500008745000061
S214409A908745000087450000874500008745000051
S214409AA0874500008745000087450000AF85580081
S214409AB0FFFFFF00FFFFFF00FFFFFF00FFFFFF006D
S214409AC0FFFFFF00FFFFFF00FFFFFF00FFFFFF005D
S214409AD0FFFFFF00FFFFFF00FFFFFF00D4BCA40016
S214409AE08745000087450000874500008745000001
S214409AF0874500008745000087450000A77744005B
S214409B00FFFFFF00FFFFFF00FFFFFF00FFFFFF001C
S214409B10FFFFFF00FFFFFF00FFFFFF00FFFFFF000C
S214409B20FFFFFF00D9C6B10087450000874500000B
S214409B3087450000874500008745000087450000B0
S214409B40874500009E683000FFFFFF00FFFFFF00D4
S214409B50FFFFFF00FFFFFF00FFFFFF00FFFFFF00CC
S214409B60FFFFFF00FFFFFF00FFFFFF00FFFFFF00BC
S214409B70FFFFFF00D0B79C008745000087450000E8
S214409B808745000087450000874500008745000060
S214409B908745000087450000874500008745000050
S214409BA08745000087450000D7C2AB00FFFFFF0097
S214409BB0FFFFFF00FFFFFF00FFFFFF00FFFFFF006C
S214409BC0FFFFFF00FFFFFF00FFFFFF00FFFFFF005C
S214409BD08745000087450000AB7D4D00FFFFFF0036
S214409BE0FFFFFF00FFFFFF00FFFFFF00FFFFFF003C
S214409BF0FFFFFF00FFFFFF00FFFFFF00FFFFFF002C
S214409C00E9DDD00087450000874500008745000015
S214409C10D0B79E00FFFFFF00FFFFFF00FFFFFF00E3
S214409C20FFFFFF00FFFFFF00FFFFFF00FFFFFF00FB
S214409C30FFFFFF00FFFFFF00FFFFFF00FFFFFF00EB
S214409C40FFFFFF00FFFFFF00FFFFFF00FFFFFF00DB
S214409C50FFFFFF00FFFFFF00FFFFFF00FFFFFF00CB
S214409C60FFFFFF00FFFFFF00FFFFFF00FFFFFF00BB
S214409C70FFFFFF00FFFFFF00FFFFFF00FFFFFF00AB
S214409C80FFFFFF00FFFFFF00FFFFFF00FFFFFF009B
S214409C90FFFFFF00FFFFFF00FFFFFF00FFFFFF008B
S214409CA0FFFFFF00FFFFFF00FFFFFF00FFFFFF007B
S214409CB0FFFFFF00FFFFFF00FFFFFF00FFFFFF006B
S214409CC0FFFFFF00FFFFFF00FFFFFF00FFFFFF005B
S214409CD0FFFFFF00FFFFFF00FCFBF900955A1E0048
S214409CE08745000087450000AF835500FFFFFF0013
S214409CF0FFFFFF00FFFFFF00FFFFFF00FFFFFF002B
S214409D00FFFFFF00FFFFFF00FFFFFF00FFFFFF001A
S214409D10E1D1C0008745000087450000C5A5830007
S214409D20FFFFFF00FFFFFF00FFFFFF00FFFFFF00FA
S214409D30FFFFFF00FFFFFF00FFFFFF00FFFFFF00EA
S214409D40FFFFFF00FFFFFF00FFFFFF00FFFFFF00DA
S214409D50FFFFFF00FFFFFF00FFFFFF00FFFFFF00CA
S214409D60FFFFFF00FFFFFF00FFFFFF00FFFFFF00BA
S214409D70FFFFFF00D7C2AC008745000087450000C4
S214409D80874500008745000087450000874500005E
S214409D90874500008745000087450000874500004E
S214409DA087450000874500008A4A0700F8F5F2001C
S214409DB0FFFFFF00FFFFFF00FFFFFF00FFFFFF006A
S214409DC0FFFFFF00FFFFFF00FFFFFF00FFFFFF005A
S214409DD0FFFFFF00CDB29500874500008745000095
S214409DE087450000874500008745000087450000FE
S214409DF087450000874500008745000087450000EE
S214409E00874500008745000087450000E3D3C30030
S214409E10FFFFFF00FFFFFF00FFFFFF00FFFFFF0009
S214409E20FFFFFF00FFFFFF00FFFFFF00FFFFFF00F9
S214409E30FFFFFF00FFFFFF00D6BFA80087450000DA
S214409E40874500008745000087450000874500009D
S214409E50874500008745000087450000874500008D
S214409E608745000087450000874500008E4F0F005D
S214409E70FCFBF900FFFFFF00FFFFFF00FFFFFF00B6
S214409E80FFFFFF00FFFFFF00FFFFFF00FFFFFF0099
S214409E90FFFFFF00FFFFFF00FFFFFF00D4BCA40052
S214409EA0874500008745000087450000874500003D
S214409EB0874500008745000087450000A777440097
S214409EC0FFFFFF00FFFFFF00FFFFFF00FFFFFF0059
S214409ED0FFFFFF00FFFFFF00FFFFFF00FFFFFF0049
S214409EE0FFFFFF00D9C6B100874500008745000048
S214409EF087450000874500008745000087450000ED
S214409F00874500009E683000FFFFFF00FFFFFF0010
S214409F10FFFFFF00FFFFFF00FFFFFF00FFFFFF0008
S214409F20FFFFFF00FFFFFF00FFFFFF00FFFFFF00F8
S214409F30FFFFFF00AC7F4F008745000087450000CD
S214409F40874500008745000087450000874500009C
S214409F50874500008745000087450000874500008C
S214409F608745000087450000B2885D00FFFFFF0080
S214409F70FFFFFF00FFFFFF00FFFFFF00FFFFFF00A8
S214409F80FFFFFF00FFFFFF00FFFFFF00FFFFFF0098
S214409F908745000087450000D5BDA500FFFFFF00B0
S214409FA0FFFFFF00FFFFFF00FFFFFF00FFFFFF0078
S214409FB0FFFFFF00FFFFFF00FFFFFF00FFFFFF0068
S214409FC0E9DDD0008745000087450000955A1E0011
S214409FD0FCFBF900FFFFFF00FFFFFF00FFFFFF0055
S214409FE0FFFFFF00FFFFFF00FFFFFF00FFFFFF0038
S214409FF0FFFFFF00FFFFFF00FFFFFF00FFFFFF0028
S21440A000FFFFFF00FFFFFF00FFFFFF00FFFFFF0017
S21440A010FFFFFF00FFFFFF00FFFFFF00FFFFFF0007
S21440A020FFFFFF00FFFFFF00FFFFFF00FFFFFF00F7
S21440A030FFFFFF00FFFFFF00FFFFFF00FFFFFF00E7
S21440A040FFFFFF00FFFFFF00FFFFFF00FFFFFF00D7
S21440A050FFFFFF00FFFFFF00FFFFFF00FFFFFF00C7
S21440A060FFFFFF00FFFFFF00FFFFFF00FFFFFF00B7
S21440A070FFFFFF00FFFFFF00FFFFFF00FFFFFF00A7
S21440A080FFFFFF00FFFFFF00FFFFFF00FFFFFF0097
S21440A090FFFFFF00FFFFFF00FFFFFF00CAAF91007A
S21440A0A08745000087450000AF835500FFFFFF004F
S21440A0B0FFFFFF00FFFFFF00FFFFFF00FFFFFF0067
S21440A0C0FFFFFF00FFFFFF00FFFFFF00FFFFFF0057
S21440A0D0FFFEFE0093581B0087450000C5A5830081
S21440A0E0FFFFFF00FFFFFF00FFFFFF00FFFFFF0037
S21440A0F0FFFFFF00FFFFFF00FFFFFF00FFFFFF0027
S21440A100FFFFFF00FFFFFF00FFFFFF00FFFFFF0016
S21440A110FFFFFF00FFFFFF00FFFFFF00FFFFFF0006
S21440A120FFFFFF00FFFFFF00FFFFFF00FFFFFF00F6
S21440A130FFFFFF00D7C2AC00874500008745000000
S21440A140874500008745000087450000874500009A
S21440A150874500008745000087450000874500008A
S21440A160874500008745000087450000D8C3AE00FD
S21440A170FFFFFF00FFFFFF00FFFFFF00FFFFFF00A6
S21440A180FFFFFF00FFFFFF00FFFFFF00FFFFFF0096
S21440A190FFFFFF00AA7B4B00874500008745000075
S21440A1A0874500008745000087450000874500003A
S21440A1B0874500008745000087450000874500002A
S21440A1C0874500008745000087450000E3D3C3006D
S21440A1D0FFFFFF00FFFFFF00FFFFFF00FFFFFF0046
S21440A1E0FFFFFF00FFFFFF00FFFFFF00FFFFFF0036
S21440A1F0FFFFFF00FFFFFF00B1865B0087450000C2
S21440A20087450000874500008745000087450000D9
S21440A21087450000874500008745000087450000C9
S21440A22087450000874500008745000087450000B9
S21440A230DFCCBA00FFFFFF00FFFFFF00FFFFFF007D
S21440A240FFFFFF00FFFFFF00FFFFFF00FFFFFF00D5
S21440A250FFFFFF00FFFFFF00FFFFFF00D4BCA4008E
S21440A2608745000087450000874500008745000079
S21440A270874500008745000087450000A7774400D3
S21440A280FFFFFF00FFFFFF00FFFFFF00FFFFFF0095
S21440A290FFFFFF00FFFFFF00FFFFFF00FFFFFF0085
S21440A2A0FFFFFF00D9C6B100874500008745000084
S21440A2B08745000087450000874500008745000029
S21440A2C0874500009E683000FFFFFF00FFFFFF004D
S21440A2D0FFFFFF00FFFFFF00FFFFFF00FFFFFF0045
S21440A2E0FFFFFF00FFFFFF00FFFFFF00FFFFFF0035
S21440A2F0FCFAF8008C4D0C008745000087450000AE
S21440A30087450000874500008745000087450000D8
S21440A31087450000874500008745000087450000C8
S21440A32087450000874500008E521200FDFCFB006A
S21440A330FFFFFF00FFFFFF00FFFFFF00FFFFFF00E4
S21440A340FFFFFF00FFFFFF00FFFFFF00FFFFFF00D4
S21440A3508745000087450100F3EDE700FFFFFF005B
S21440A360FFFFFF00FFFFFF00FFFFFF00FFFFFF00B4
S21440A370FFFFFF00FFFFFF00FFFFFF00FFFFFF00A4
S21440A380E9DDD0008745000087450000CAAF910050
S21440A390FFFFFF00FFFFFF00FFFFFF00FFFFFF0084
S21440A3A0FFFFFF00FFFFFF00FFFFFF00FFFFFF0074
S21440A3B0FFFFFF00FFFFFF00FFFFFF00FFFFFF0064
S21440A3C0FFFFFF00FFFFFF00FFFFFF00FFFFFF0054
S21440A3D0FFFFFF00FFFFFF00FFFFFF00FFFFFF0044
S21440A3E0FFFFFF00FFFFFF00FFFFFF00FFFFFF0034
S21440A3F0FFFFFF00FFFFFF00FFFFFF00FFFFFF0024
S21440A400FFFFFF00FFFFFF00FFFFFF00FFFFFF0013
S21440A410FFFFFF00FFFFFF00FFFFFF00FFFFFF0003
S21440A420FFFFFF00FFFFFF00FFFFFF00FFFFFF00F3
S21440A430FFFFFF00FFFFFF00FFFFFF00FFFFFF00E3
S21440A440FFFFFF00FFFFFF00FFFFFF00FFFFFF00D3
S21440A450FFFFFF00FFFFFF00FFFFFF00FBF8F600D7
S21440A4609053140087450000AF835500FFFFFF0060
S21440A470FFFFFF00FFFFFF00FFFFFF00FFFFFF00A3
S21440A480FFFFFF00FFFFFF00FFFFFF00FFFFFF0093
S21440A490FFFFFF00B2885D0087450000C5A583002A
S21440A4A0FFFFFF00FFFFFF00FFFFFF00FFFFFF0073
S21440A4B0FFFFFF00FFFFFF00FFFFFF00FFFFFF0063
S21440A4C0FFFFFF00FFFFFF00FFFFFF00FFFFFF0053
S21440A4D0FFFFFF00FFFFFF00FFFFFF00FFFFFF0043
S21440A4E0FFFFFF00FFFFFF00FFFFFF00FFFFFF0033
S21440A4F0FFFFFF00D7C2AC0087450000874500003D
S21440A50087450000874500008745000087450000D6
S21440A51087450000874500008745000087450000C6
S21440A520874500008745000087450000B58B6100E1
S21440A530FFFFFF00FFFFFF00FFFFFF00FFFFFF00E2
S21440A540FFFFFF00FFFFFF00FFFFFF00FFFFFF00D2
S21440A550FBF9F7008B4C0A00874500008745000052
S21440A5608745000087450000874500008745000076
S21440A5708745000087450000874500008745000066
S21440A580874500008745000087450000E3D3C300A9
S21440A590FFFFFF00FFFFFF00FFFFFF00FFFFFF0082
S21440A5A0FFFFFF00FFFFFF00FFFFFF00FFFFFF0072
S21440A5B0FFFFFF00FEFDFC008F52130087450000A2
S21440A5C08745000087450000874500008745000016
S21440A5D08745000087450000874500008745000006
S21440A5E087450000874500008745000087450000F6
S21440A5F0B9956D00FFFFFF00FFFFFF00FFFFFF0064
S21440A600FFFFFF00FFFFFF00FFFFFF00FFFFFF0011
S21440A610FFFFFF00FFFFFF00FFFFFF00D4BCA400CA
S21440A62087450000874500008745000087450000B5
S21440A630874500008745000087450000A77744000F
S21440A640FFFFFF00FFFFFF00FFFFFF00FFFFFF00D1
S21440A650FFFFFF00FFFFFF00FFFFFF00FFFFFF00C1
S21440A660FFFFFF00D9C6B1008745000087450000C0
S21440A6708745000087450000874500008745000065
S21440A680874500009E683000FFFFFF00FFFFFF0089
S21440A690FFFFFF00FFFFFF00FFFFFF00FFFFFF0081
S21440A6A0FFFFFF00FFFFFF00FFFFFF00FFFFFF0071
S21440A6B0DBC9B50087450000874500008745000098
S21440A6C08745000087450000874500008745000015
S21440A6D08745000087450000874500008745000005
S21440A6E0874500008745000087450000E1D1C0004F
S21440A6F0FFFFFF00FFFFFF00FFFFFF00FFFFFF0021
S21440A700FFFFFF00FFFFFF00FFFFFF00FFFFFF0010
S21440A710874500009B652C00FFFFFF00FFFFFF0002
S21440A720FFFFFF00FFFFFF00FFFFFF00FFFFFF00F0
S21440A730FFFFFF00FFFFFF00FFFFFF00FFFFFF00E0
S21440A740E9DDD0008745000089490600F5F0EB00BA
S21440A750FFFFFF00FFFFFF00FFFFFF00FFFFFF00C0
S21440A760FFFFFF00FFFFFF00FFFFFF00FFFFFF00B0
S21440A770FFFFFF00FFFFFF00FFFFFF00FFFFFF00A0
S21440A780FFFFFF00FFFFFF00FFFFFF00FFFFFF0090
S21440A790FFFFFF00FFFFFF00FFFFFF00FFFFFF0080
S21440A7A0FFFFFF00FFFFFF00FFFFFF00FFFFFF0070
S21440A7B0FFFFFF00FFFFFF00FFFFFF00FFFFFF0060
S21440A7C0FFFFFF00FFFFFF00FFFFFF00FFFFFF0050
S21440A7D0FFFFFF00FFFFFF00FFFFFF00FFFFFF0040
S21440A7E0FFFFFF00FFFFFF00FFFFFF00FFFFFF0030
S21440A7F0FFFFFF00FFFFFF00FFFFFF00FFFFFF0020
S21440A800FFFFFF00FFFFFF00FFFFFF00FFFFFF000F
S21440A810FFFFFF00FFFFFF00FFFFFF00FFFFFF00FF
S21440A820B9936C0087450000AF835500FFFFFF00DB
S21440A830FFFFFF00FFFFFF00FFFFFF00FFFFFF00DF
S21440A840FFFFFF00FFFFFF00FFFFFF00FFFFFF00CF
S21440A850FFFFFF00D1B89F0087450000C5A58300D5
S21440A860FFFFFF00FFFFFF00FFFFFF00FFFFFF00AF
S21440A870FFFFFF00FFFFFF00FFFFFF00FFFFFF009F
S21440A880FFFFFF00FFFFFF00FFFFFF00FFFFFF008F
S21440A890FFFFFF00FFFFFF00FFFFFF00FFFFFF007F
S21440A8A0FFFFFF00FFFFFF00FFFFFF00FFFFFF006F
S21440A8B0FFFFFF00D7C2AC00874500008745000079
S21440A8C08745000087450000874500008745000013
S21440A8D08745000087450000874500008745000003
S21440A8E087450000874500008745000090541500C6
S21440A8F0FEFDFC00FFFFFF00FFFFFF00FFFFFF0025
S21440A900FFFFFF00FFFFFF00FFFFFF00FFFFFF000E
S21440A910DCCAB60087450000874500008745000032
S21440A92087450000874500008745000087450000B2
S21440A93087450000874500008745000087450000A2
S21440A940874500008745000087450000E3D3C300E5
S21440A950FFFFFF00FFFFFF00FFFFFF00FFFFFF00BE
S21440A960FFFFFF00FFFFFF00FFFFFF00FFFFFF00AE
S21440A970FFFFFF00E1D1C00087450000874500008B
S21440A9808745000087450000874500008745000052
S21440A9908745000087450000874500008745000042
S21440A9A08745000087450000874500008745000032
S21440A9B0955A1E00FFFEFE00FFFFFF00FFFFFF0050
S21440A9C0FFFFFF00FFFFFF00FFFFFF00FFFFFF004E
S21440A9D0FFFFFF00FFFFFF00FFFFFF00D4BCA40007
S21440A9E087450000874500008745000087450000F2
S21440A9F0874500008745000087450000A77744004C
S21440AA00FFFFFF00FFFFFF00FFFFFF00FFFFFF000D
S21440AA10FFFFFF00FFFFFF00FFFFFF00FFFFFF00FD
S21440AA20FFFFFF00D9C6B1008745000087450000FC
S21440AA3087450000874500008745000087450000A1
S21440AA40874500009E683000FFFFFF00FFFFFF00C5
S21440AA50FFFFFF00FFFFFF00FFFFFF00FFFFFF00BD
S21440AA60FFFFFF00FFFFFF00FFFFFF00FFFFFF00AD
S21440AA70B79068008745000087450000874500007E
S21440AA808745000087450000874500008745000051
S21440AA908745000087450000874500008745000041
S21440AAA0874500008745000087450000BD98720036
S21440AAB0FFFFFF00FFFFFF00FFFFFF00FFFFFF005D
S21440AAC0FFFFFF00FFFFFF00FFFFFF00FFFFFF004D
S21440AAD087450000BB956F00FFFFFF00FFFFFF00AC
S21440AAE0FFFFFF00FFFFFF00FFFFFF00FFFFFF002D
S21440AAF0FFFFFF00FFFFFF00FFFFFF00FFFFFF001D
S21440AB00E9DDD00087450000AE825300FFFFFF001E
S21440AB10FFFFFF00FFFFFF00FFFFFF00FFFFFF00FC
S21440AB20FFFFFF00FFFFFF00FFFFFF00FFFFFF00EC
S21440AB30FFFFFF00FFFFFF00FFFFFF00FFFFFF00DC
S21440AB40FFFFFF00FFFFFF00FFFFFF00FFFFFF00CC
S21440AB50FFFFFF00FFFFFF00FFFFFF00FFFFFF00BC
S21440AB60FFFFFF00FFFFFF00FFFFFF00FFFFFF00AC
S21440AB70FFFFFF00FFFFFF00FFFFFF00FFFFFF009C
S21440AB80FFFFFF00FFFFFF00FFFFFF00FFFFFF008C
S21440AB90FFFFFF00FFFFFF00FFFFFF00FFFFFF007C
S21440ABA0FFFFFF00FFFFFF00FFFFFF00FFFFFF006C
S21440ABB0FFFFFF00FFFFFF00FFFFFF00FFFFFF005C
S21440ABC0FFFFFF00FFFFFF00FFFFFF00FFFFFF004C
S21440ABD0FFFFFF00FFFFFF00FFFFFF00FFFFFF003C
S21440ABE0E6D8C90087450000AF835500FFFFFF0049
S21440ABF0FFFFFF00FFFFFF00FFFFFF00FFFFFF001C
S21440AC00FFFFFF00FFFFFF00FFFFFF00FFFFFF000B
S21440AC10FFFFFF00F1E9E20087450000C5A583007D
S21440AC20FFFFFF00FFFFFF00FFFFFF00FFFFFF00EB
S21440AC30FFFFFF00FFFFFF00FFFFFF00FFFFFF00DB
S21440AC40FFFFFF00FFFFFF00FFFFFF00FFFFFF00CB
S21440AC50FFFFFF00FFFFFF00FFFFFF00FFFFFF00BB
S21440AC60FFFFFF00FFFFFF00FFFFFF00FFFFFF00AB
S21440AC70FFFFFF00D7C2AC008745000087450000B5
S21440AC80874500008745000087450000874500004F
S21440AC90874500008745000087450000874500003F
S21440ACA0874500008745000087450000874500002F
S21440ACB0E3D4C500FFFFFF00FFFFFF00FFFFFF00DC
S21440ACC0FFFFFF00FFFFFF00FFFFFF00FFFFFF004B
S21440ACD0B9936C0087450000874500008745000013
S21440ACE087450000874500008745000087450000EF
S21440ACF087450000874500008745000087450000DF
S21440AD00874500008745000087450000E3D3C30021
S21440AD10FFFFFF00FFFFFF00FFFFFF00FFFFFF00FA
S21440AD20FFFFFF00FFFFFF00FFFFFF00FFFFFF00EA
S21440AD30FFFFFF00BE9A740087450000874500006D
S21440AD40874500008745000087450000874500008E
S21440AD50874500008746020087450000874500007B
S21440AD60874500008745000087450000874500006E
S21440AD7087450000E9DDD000FFFFFF00FFFFFF0032
S21440AD80FFFFFF00FFFFFF00FFFFFF00FFFFFF008A
